{
  "_format": "hh-sol-artifact-1",
  "contractName": "Anchor",
  "sourceName": "contracts/Anchor.sol",
  "abi": [
    {
      "anonymous": false,
      "inputs": [
        {
          "indexed": true,
          "internalType": "bytes32",
          "name": "anchorHash",
          "type": "bytes32"
        },
        {
          "indexed": true,
          "internalType": "address",
          "name": "by",
          "type": "address"
        },
        {
          "indexed": false,
          "internalType": "uint256",
          "name": "at",
          "type": "uint256"
        }
      ],
      "name": "Anchored",
      "type": "event"
    },
    {
      "inputs": [
        {
          "internalType": "bytes32",
          "name": "_hash",
          "type": "bytes32"
        }
      ],
      "name": "anchor",
      "outputs": [
        {
          "internalType": "bool",
          "name": "",
          "type": "bool"
        }
      ],
      "stateMutability": "nonpayable",
      "type": "function"
    }
  ],
  "bytecode": "0x608060405234801561001057600080fd5b506101c2806100206000396000f3fe608060405234801561001057600080fd5b506004361061002b5760003560e01c8063eecdf92714610030575b600080fd5b61004a600480360381019061004591906100f5565b610060565b604051610057919061013d565b60405180910390f35b60003373ffffffffffffffffffffffffffffffffffffffff16827ffe2289542f7a0110ac112c3a4d712afdcaaf2900a1326f4e6f340b563a0e8734426040516100a99190610171565b60405180910390a360019050919050565b600080fd5b6000819050919050565b6100d2816100bf565b81146100dd57600080fd5b50565b6000813590506100ef816100c9565b92915050565b60006020828403121561010b5761010a6100ba565b5b6000610119848285016100e0565b91505092915050565b60008115159050919050565b61013781610122565b82525050565b6000602082019050610152600083018461012e565b92915050565b6000819050919050565b61016b81610158565b82525050565b60006020820190506101866000830184610162565b9291505056fea2646970667358221220605b2935d6ca2fe03c97116d440ca65a4ab38749da899a68b7c64a2b484874a864736f6c63430008140033",
  "linkReferences": {},
  "deployedLinkReferences": {}
}